:10000000E0EF2DF00000000000EF00F00000000025
:0A0010000000000000000000F3D71C
:10001C000B820BAE18EF00F00368026801680068F1
:08002C000A360232FF0E120039
:0E003400026A016A006A086A036A000E12007E
:100042000B840BAE2CEF00F0010E036E026A016A04
:0A005200006A0A360232FF0E1200A7
:08005C000AAE029E000E120024
:10006400F250026EF29E0500FF6A0150FE6E0050CF
:08007400FD6E02BEF28E1200C7
:10007C00C7B409D01F0EC514016E0150000A03E16C
:0A008C00010E006E01D0006A1200A0
:1000960063C03CF164C03DF165C03EF166C03FF10E
:1000A6009E96C5869EB620D00001635164116511E7
:1000B600661119E001013C513D113E113F110CE161
:1000C600BAC0E1FFBBC0E2FF030EE66EB8C000F0A7
:1000D600B9C001F0C4DF08D0010E01013C5F000E7B
:1000E6003D5B3E5B3F5BDED70101C9CF3BF13A5139
:1000F600000A02E1C58A01D0C59A9E96C58863C0EA
:100106003CF164C03DF165C03EF166C03FF19EB66C
:1001160020D00001635164116511661119E00101D7
:100126003C513D113E113F110CE1BAC0E1FFBBC08D
:10013600E2FF030EE66EB8C000F0B9C001F08FDF33
:1001460008D0010E01013C5F000E3D5B3E5B3F5B4C
:08015600DED73BC100F01200EE
:10015E000CB0F1EF00F00CA297EF01F00E6A000E5A
:10016E00026408EF01F0F00E0214D8A4D3EF00F0F1
:10017E00023A01380F0B02260138F00B016E0038DF
:10018E000F0B01260038F00B006E08380F0B0026FF
:10019E000838F00B086E0E84D89002BEECEF00F01B
:1001AE0008360036013602360E2A02BEECEF00F09B
:1001BE0008360036013602360E2A02BEECEF00F08B
:1001CE0008360036013602360E2A0E5003648DEFC5
:1001DE0001F0035E0BBC08AE92EF01F0D880800EEA
:1001EE0008640030000E002201220222D8A092EFF5
:1001FE0001F0023201320032034A97EF01F092EF22
:10020E0001F001C002F000C001F008C000F0086A61
:10021E00000E0E8602643FEF01F0F00E0214D8A419
:10022E0027EF01F0023A01380F0B02260138F00BCE
:10023E00016E00380F0B01260038F00B006E0E8495
:10024E00D89002BEECEF00F00036013602360E2AD0
:10025E0002BEECEF00F00036013602360E2A02BE68
:10026E00ECEF00F00036013602360E2AECEF00F00D
:10027E0001C002F000C001F0006A000E0E960E885A
:10028E0002646CEF01F0F00E0214D8A457EF01F0E7
:10029E00023A01380F0B02260138F00B016E0E8464
:1002AE00D89002BEECEF00F0013602360E2A02BEE6
:1002BE00ECEF00F0013602360E2A02BEECEF00F033
:1002CE00013602360E2AECEF00F001C002F0016A90
:1002DE00000E0E8602649CEF01F0F00E0214D8A4FC
:1002EE007BEF01F0023A0E84D89002BEECEF00F0E4
:1002FE0002360E2A02BEECEF00F002360E2A02BEC5
:10030E00ECEF00F002360E2AECEF00F0010E0C6E50
:10031E0091DE9FEF01F0020E0C6E99DE9FEF01F061
:10032E00040E0C6E74DE9FEF01F0080E0C6E7BDE79
:02033E001200AB
:1003400063C03CF164C03DF165C03EF166C03FF161
:1003500001013A6B3B6B3B51120802E13A518E08A6
:1003600008E38CDE005201E004D001013A4B3B2B44
:10037000F2D70101120E3B5D02E18F0E3A5D03E3FD
:100380007B0E006E26D0C580C5A022D0000163512F
:100390006411651166111BE001013C513D113E11D4
:1003A0003F110EE1BAC0E1FFBBC0E2FF050EE66EF1
:1003B000B8C000F0B9C001F055DE010E006E09D0E2
:1003C000010E01013C5F000E3D5B3E5B3F5BDCD7F5
:0403D000006A1200AD
:1003D40063C03AF164C03BF165C03CF166C03DF1D5
:1003E400C582C5A220D00001635164116511661154
:1003F40019E001013A513B113C113D110CE1BAC025
:10040400E1FFBBC0E2FF060EE66EB8C000F0B9C063
:1004140001F026DE08D0010E01013A5F000E3B5BBD
:080424003C5B3D5BDED71200DA
:10042C009E963AC1C9FF63C03BF164C03CF165C004
:10043C003DF166C03EF1C7A422D0000163516411A6
:10044C00651166111BE001013B513C113D113E1140
:10045C000EE1BAC0E1FFBBC0E2FF040EE66EB8C00D
:10046C0000F0B9C001F0F8DD010E006E3BD0010EBA
:10047C0001013B5F000E3C5B3D5B3E5BDCD763C028
:10048C003BF164C03CF165C03DF166C03EF19EB6E7
:10049C0022D0000163516411651166111BE001014A
:1004AC003B513C113D113E110EE1BAC0E1FFBBC006
:1004BC00E2FF040EE66EB8C000F0B9C001F0CCDD6E
:1004CC00010E006E0FD0010E01013B5F000E3C5B74
:1004DC003D5B3E5BDCD7C5BC02D0006A03D0C58453
:0604EC00020E006E12007A
:0404F200C5841200AB
:1004F6000B800BAE87EF02F0026A0AAEFF0E026EA9
:0C050600016E006E0A360232FF0E120079
:080512000B6A0B86FF0E1200BC
:10051A000D6A086A0050D8B4000C04180A6E0ABEA4
:10052A000D1E0B6A04AE02D0041E042A00AE02D0CD
:10053A00001E002A005004100A6E0ABE1FD0045082
:10054A00085E003600340836045008260036060EC7
:10055A000C6E00340836045000B0085E00A008266D
:10056A0000360C2EF6D700A008260BB015D00DAE1B
:10057A00000C001E002A081E082A000C04AE09D02E
:10058A0000BE04D00050086E006AF1D7006A002A43
:10059A00000C001E0B2AD3D7082A0450085CD8A4E2
:0E05AA00E6D7086A002A00AEE2D7FF0C120066
:1005B800086A096A000E0762036461EF03F00250DB
:1005C80006180A6E075003267E0ED8A0F2EF02F036
:1005D800035ED8B065EF03F0F6EF02F0035ED8A033
:1005E80069EF03F0028E068E02C00EF001C00BF018
:1005F80000C00DF000500402F4CF0CF001500502C9
:10060800F4CF00F0F3CF08F00402F3500C26F450B6
:100618000822000E00220D500502F3500C26F4505B
:100628000822000E002202500402F3500826F4505B
:10063800002202500502016A000E0122F350002632
:10064800F45001220D500602F3500826F4500022FF
:10065800026A000E012202220B500602F350002605
:10066800F4500122000E02220E500602F350012619
:10067800F450022202BE49EF03F008360036013674
:1006880002360306D8B469EF03F05CEF03F0D880B4
:10069800800E08640030000E002201220222D8A039
:1006A8005CEF03F0023201320032034A65EF03F0D7
:1006B8000AAE029E000E6BEF03F0010EB7DC6BEF83
:1006C80003F0020EA7DC6BEF03F0040EB6DC120099
:1006D8000134083609360450085E0550D8A0053C98
:1006E800095E003601360F0E0C6E013408360936E5
:1006F800045000A006D0085E0550D8A0053C095E4D
:1007080005D008260550D8B0053C09260036013624
:100718000C2EEBD700B006D0045008260550D8B0F0
:08072800053C09260000120047
:10073000086A080E0C6E003408360450085ED8B003
:0E07400002D00826D89000360C2EF5D71200F5
:10074E00025006180E6E086A096A0B6A0350076497
:10075E009AEF04F006500A6E068E028E03500B6E50
:10076E000750036E000E0B64EAEF03F00B50075EAA
:10077E00D8B48BEF04F0070E076459EF04F0075E50
:10078E0000C008F001C000F002C001F0026A074E7E
:10079E008BEF04F007642EEF04F0075E00C008F044
:1007AE0001C000F0016A074E8BEF04F007640CEFF6
:1007BE0004F0075E00C008F0006A074E8BEF04F0ED
:1007CE000764F3EF03F00AC002F005C001F004C0A5
:1007DE0000F0086AB7EF05F0030E0764FEEF03F0B2
:1007EE00075E08380F0B086E074E8BEF04F0D8909B
:1007FE000832074E8BEF04F0D8900832074E8BEF7D
:10080E0004F0D89008328BEF04F0030E07641DEF4E
:10081E0004F0075E08380F0B086E0038F00B082640
:10082E0000380F0B006E074E8BEF04F0D89000329D
:10083E000832074E8BEF04F0D89000320832074E84
:10084E008BEF04F0D890003208328BEF04F0030ED9
:10085E00076445EF04F0075E08380F0B086E00388A
:10086E00F00B082600380F0B006E0138F00B002637
:10087E0001380F0B016E074E8BEF04F0D89001324A
:10088E0000320832074E8BEF04F0D890013200325E
:10089E000832074E8BEF04F0D89001320032083246
:1008AE008BEF04F0030E076476EF04F0075E083852
:1008BE000F0B086E0038F00B082600380F0B006E79
:1008CE000138F00B002601380F0B016E0238F00BC9
:1008DE00012602380F0B026E074E8BEF04F0D890F4
:1008EE000232013200320832074E8BEF04F0D890FC
:1008FE000232013200320832074E8BEF04F0D890EC
:10090E000232013200320832096A000E0EAE7FEF5B
:10091E0005F0081E001E011E021E082A00220122DA
:10092E0002227FEF05F00750D8A4A0EF04F0B7EF36
:10093E0005F0096A02C00AF0028E068E0750035CAB
:10094E00076ED8B472EF05F0070E076440EF05F09E
:10095E00075E0450096E0550046E0650056E066A59
:10096E00074E72EF05F0070E076415EF05F0075EF0
:10097E000450096E0550046E056A074E72EF05F0BD
:10098E00070E0764F3EF04F0075E0450096E046A65
:10099E00074E72EF05F0070E0764DAEF04F00AC097
:1009AE0002F0B7EF05F0030E0764E5EF04F0075E03
:1009BE0009380F0B096E074E72EF05F0D890093209
:1009CE00074E72EF05F0D8900932074E72EF05F020
:1009DE00D890093272EF05F0030E076404EF05F0AC
:1009EE00075E09380F0B096E0438F00B0926043820
:1009FE000F0B046E074E72EF05F0D89004320932D9
:100A0E00074E72EF05F0D89004320932074E72EF9E
:100A1E0005F0D8900432093272EF05F0030E076428
:100A2E002CEF05F0075E09380F0B096E0438F00B3A
:100A3E00092604380F0B046E0538F00B0426053812
:100A4E000F0B056E074E72EF05F0D890053204328B
:100A5E000932074E72EF05F0D89005320432093292
:100A6E00074E72EF05F0D89005320432093272EF5C
:100A7E0005F0030E07645DEF05F0075E09380F0BF6
:100A8E00096E0438F00B092604380F0B046E053876
:100A9E00F00B042605380F0B056E0638F00B0526F5
:100AAE0006380F0B066E074E72EF05F0D890063221
:100ABE00053204320932074E72EF05F0D890063235
:100ACE00053204320932074E72EF05F0D890063225
:100ADE00053204320932086A000E0EAE7FEF05F0C1
:100AEE00091E041E051E061E092A042205220622C0
:100AFE0009500826045000220550012206500222F9
:100B0E000EBE96EF05F0D8A0A5EF05F00232013229
:100B1E0000320832033EA5EF05F0B1EF05F0D8B074
:100B2E00ABEF05F0000E081E001E011E021E082A65
:100B3E000022012202220A7EABEF05F0010E0C6E9E
:100B4E00AFEC00F0B9EF05F0020E0C6EAFEC00F05A
:100B5E00B9EF05F0040E0C6E0EEC00F0B9EF05F0D7
:060B6E00000E0C6E1200E7
:100B740003500718D8A4CEEF05F002500618D8A4E5
:100B8400CEEF05F001500518D8A4CEEF05F00050C3
:0E0B94000418D8B4D8841200D89412001200AD
:100BA2006E0E0101355DD8A0C3D0640E046E35C14E
:100BB20000F0BDDD120E0024056E066A000E06224C
:100BC20005C000F006C001F0000E06BEFF0E026E68
:100BD200036E00360090013602360336003600906E
:100BE200013602360336380E0024F66E5C0E012002
:100BF200F76E000E0220F86E0900F5CF00F0090032
:100C0200F5CF01F00900F5CF02F00900F5CF03F0AE
:100C1200000E046E000E056E000E066E7E0E076E4E
:100C2200CADC00C036F101C037F102C038F103C09E
:100C320039F1640E046E35C100F079DD08C000F0B0
:100C42000A0E046E74DD090E0024056E066A000E9B
:100C5200062205C000F006C001F0000E06BEFF0E1F
:100C6200026E036E003600900136023603360036FD
:100C72000090013602360336380E0024F66E5C0E02
:100C82000120F76E000E0220F86E0900F5CF00F089
:100C92000900F5CF01F00900F5CF02F00900F5CF08
:100CA20003F036C104F037C105F038C106F039C18E
:100CB20007F081DC00C036F101C037F102C038F123
:100CC20003C039F10A0E046E35C100F030DD08C0F0
:100CD20000F000C001F0000E026E036E046E0136D9
:100CE200019002360336043601360190023603368D
:100CF2000436380E0124F66E5C0E0220F76E000EEA
:100D02000320F86E0900F5CF00F00900F5CF01F0DD
:100D12000900F5CF02F00900F5CF03F036C104F067
:100D220037C105F038C106F039C107F044DCAED056
:100D320035510A08D8B07BD00A0E046E35C100F0D6
:100D4200F6DC090E0024056E066A000E062205C0B6
:100D520000F006C001F0000E06BEFF0E026E036E2A
:100D62000036009001360236033600360090013616
:100D720002360336380E0024F66E5C0E0120F76E42
:100D8200000E0220F86E0900F5CF00F00900F5CF41
:100D920001F00900F5CF02F00900F5CF03F0000ED3
:100DA200046E000E056E000E066E7E0E076E03DCEC
:100DB20000C036F101C037F102C038F103C039F189
:100DC2000A0E046E35C100F0B2DC08C000F000C0AB
:100DD20001F0000E026E036E046E013601900236BF
:100DE2000336043601360190023603360436380ED5
:100DF2000124F66E5C0E0220F76E000E0320F86EE0
:100E02000900F5CF00F00900F5CF01F00900F5CF98
:100E120002F00900F5CF03F036C104F037C105F046
:100E220038C106F039C107F0DCEC02F02FD035C131
:100E320000F0000E016E026E036E00360090013665
:100E42000236033600360090013602360336380E7B
:100E52000024F66E5C0E0120F76E000E0220F86E82
:100E62000900F5CF00F00900F5CF01F00900F5CF38
:100E720002F00900F5CF03F0000E046E000E056EBD
:0E0E8200000E066E7E0E076EDCEC02F0120013
:100E9000800E01013519006E800E000A005CD8B08A
:100EA0006DD135510008016E01C035F1800E011879
:100EB000006E800E6E0A005CD8A0C0D0640E046E76
:100EC00035C100F08DEC02F0120E0024056E000E0C
:100ED00000BEFF0E066E000E062205C000F006C022
:100EE00001F0000E06BEFF0E026E036E003600908B
:100EF00001360236033600360090013602360336DC
:100F0000380E0024F66E5C0E0120F76E000E0220F3
:100F1000F86E0900F5CF36F10900F5CF37F1090079
:100F2000F5CF38F10900F5CF39F1640E046E35C103
:100F300000F08DEC02F008C000F00A0E046E8DEC9B
:100F400002F0090E0024056E000E00BEFF0E066EB4
:100F5000000E062205C000F006C001F0000E06BE1D
:100F6000FF0E026E036E0036009001360236033625
:100F700000360090013602360336380E0024F66E35
:100F80005C0E0120F76E000E0220F86E0900F5CF0E
:100F900000F00900F5CF01F00900F5CF02F00900DB
:100FA000F5CF03F036C104F037C105F038C106F0C3
:100FB00039C107F0DCEC02F000C036F101C037F1B6
:100FC00002C038F103C039F10A0E046E35C100F0D9
:100FD0008DEC02F008C000F000C001F0000E00BE71
:100FE000FF0E026E036E046E013601900236033668
:100FF000043601360190023603360436380E0124D9
:10100000F66E5C0E0220F76E000E0320F86E0900EB
:10101000F5CF00F00900F5CF01F00900F5CF02F09F
:101020000900F5CF03F036C104F037C105F038C12F
:1010300006F039C107F0DCEC02F007D2800E0A0A94
:10104000006E800E3519005C71E20A0E046E35C127
:1010500000F08DEC02F0090E0024056E000E00BEBB
:10106000FF0E066E000E062205C000F006C001F05D
:10107000000E06BEFF0E026E036E003600900136B3
:101080000236033600360090013602360336380E3B
:101090000024F66E5C0E0120F76E000E0220F86E42
:1010A0000900F5CF36F10900F5CF37F10900F5CF8A
:1010B00038F10900F5CF39F10A0E046E35C100F0A0
:1010C0008DEC02F008C000F000C001F0000E00BE80
:1010D000FF0E026E036E046E013601900236033677
:1010E000043601360190023603360436380E0124E8
:1010F000F66E5C0E0220F76E000E0320F86E0900FB
:10110000F5CF00F00900F5CF01F00900F5CF02F0AE
:101110000900F5CF03F036C104F037C105F038C13E
:1011200006F039C107F0DCEC02F08FD135C100F0D8
:10113000000E35BFFF0E016E026E036E003600908A
:101140000136023603360036009001360236033689
:10115000380E0024F66E5C0E0120F76E000E0220A1
:10116000F86E0900F5CF00F00900F5CF01F0090095
:10117000F5CF02F00900F5CF03F067D1800E3519E5
:10118000006E800E6E0A005CD8A0C0D0640E046EA3
:1011900035C100F08DEC02F0120E0024056E000E39
:1011A00000BEFF0E066E000E062205C000F006C04F
:1011B00001F0000E06BEFF0E026E036E00360090B8
:1011C0000136023603360036009001360236033609
:1011D0006C0E0024F66E5C0E0120F76E000E0220ED
:1011E000F86E0900F5CF36F10900F5CF37F10900A7
:1011F000F5CF38F10900F5CF39F1640E046E35C131
:1012000000F08DEC02F008C000F00A0E046E8DECC8
:1012100002F0090E0024056E000E00BEFF0E066EE1
:10122000000E062205C000F006C001F0000E06BE4A
:10123000FF0E026E036E0036009001360236033652
:10124000003600900136023603366C0E0024F66E2E
:101250005C0E0120F76E000E0220F86E0900F5CF3B
:1012600000F00900F5CF01F00900F5CF02F0090008
:10127000F5CF03F036C104F037C105F038C106F0F0
:1012800039C107F0DCEC02F000C036F101C037F1E3
:1012900002C038F103C039F10A0E046E35C100F006
:1012A0008DEC02F008C000F000C001F0000E00BE9E
:1012B000FF0E026E036E046E013601900236033695
:1012C0000436013601900236033604366C0E0124D2
:1012D000F66E5C0E0220F76E000E0320F86E090019
:1012E000F5CF00F00900F5CF01F00900F5CF02F0CD
:1012F0000900F5CF03F036C104F037C105F038C15D
:1013000006F039C107F0DCEC02F09FD0800E0A0A2B
:10131000006E800E3519005C71E20A0E046E35C154
:1013200000F08DEC02F0090E0024056E000E00BEE8
:10133000FF0E066E000E062205C000F006C001F08A
:10134000000E06BEFF0E026E036E003600900136E0
:1013500002360336003600900136023603366C0E34
:101360000024F66E5C0E0120F76E000E0220F86E6F
:101370000900F5CF36F10900F5CF37F10900F5CFB7
:1013800038F10900F5CF39F10A0E046E35C100F0CD
:101390008DEC02F008C000F000C001F0000E00BEAD
:1013A000FF0E026E036E046E0136019002360336A4
:1013B0000436013601900236033604366C0E0124E1
:1013C000F66E5C0E0220F76E000E0320F86E090028
:1013D000F5CF00F00900F5CF01F00900F5CF02F0DC
:1013E0000900F5CF03F036C104F037C105F038C16C
:1013F00006F039C107F0DCEC02F027D035C100F06F
:10140000000E35BFFF0E016E026E036E00360090B7
:1014100001360236033600360090013602360336B6
:101420006C0E0024F66E5C0E0120F76E000E02209A
:10143000F86E0900F5CF00F00900F5CF01F00900C2
:0C144000F5CF02F00900F5CF03F0120018
:10144C000B6A0A6A096A00500402F4CF09F0F3CF60
:10145C0008F001500502F4CF0BF0F3CF0AF0005066
:10146C000502F3500926F4500A22E86A0B220150B7
:10147C000402F3500926F4500A22E86A0B2208C031
:10148C0000F009C001F00AC002F00BC003F012001A
:0E149C00B4C000F0B5C001F032EC00F0120058
:1014AA00BEC0E1FFBFC0E2FF35C1E6FFBCC000F02D
:0A14BA00BDC001F032EC00F012009A
:0E14C400C4C000F0C5C001F032EC00F0120010
:0814D200067EA7EC03F01200F6
:1014DA000B6A0A6A096A086A0E6A033408360450F3
:1014EA00085E0550D8A0053C095E0650D8A0063C07
:1014FA000A5E0750D8A0073C0B5EE86AD8A0010E26
:10150A000E5E0336070E0C6E0334083609360A36A9
:10151A000B360E36045003A012D0085E0550D8A030
:10152A00053C095E0650D8A0063C0A5E0750D8A0C2
:10153A00073C0B5EE86AD8A0010E0E5E11D00826A1
:10154A000550D8B0053C09260650D8B0063C0A26F4
:10155A000750D8B0073C0B26E86AD8B0010E0E2611
:10156A0003360C2ED1D70234083609360A360B3622
:10157A000E36045003A012D0085E0550D8A0053CD0
:10158A00095E0650D8A0063C0A5E0750D8A0073C60
:10159A000B5EE86AD8A0010E0E5E11D0082605502F
:1015AA00D8B0053C09260650D8B0063C0A26075092
:1015BA00D8B0073C0B26E86AD8B0010E0E260236D0
:1015CA00070E0C6E0234083609360A360B360E360A
:1015DA00045002A012D0085E0550D8A0053C095E4E
:1015EA000650D8A0063C0A5E0750D8A0073C0B5EFE
:1015FA00E86AD8A0010E0E5E11D008260550D8B0B0
:10160A00053C09260650D8B0063C0A260750D8B031
:10161A00073C0B26E86AD8B0010E0E2602360C2EBD
:10162A00D1D70134083609360A360B360E3604503D
:10163A0002A012D0085E0550D8A0053C095E0650EB
:10164A00D8A0063C0A5E0750D8A0073C0B5EE86AA1
:10165A00D8A0010E0E5E11D008260550D8B0053C60
:10166A0009260650D8B0063C0A260750D8B0073CCF
:10167A000B26E86AD8B0010E0E260136070E0C6E4C
:10168A000134083609360A360B360E36045001A0E4
:10169A0012D0085E0550D8A0053C095E0650D8A0B5
:1016AA00063C0A5E0750D8A0073C0B5EE86AD8A041
:1016BA00010E0E5E11D008260550D8B0053C092649
:1016CA000650D8B0063C0A260750D8B0073C0B266D
:1016DA00E86AD8B0010E0E2601360C2ED1D7003496
:1016EA00083609360A360B360E36045001A012D0D7
:1016FA00085E0550D8A0053C095E0650D8A0063CF5
:10170A000A5E0750D8A0073C0B5EE86AD8A0010E13
:10171A000E5E11D008260550D8B0053C09260650A1
:10172A00D8B0063C0A260750D8B0073C0B26E86A10
:10173A00D8B0010E0E260036070E0C6E003408369D
:10174A0009360A360B360E36045000A012D0085E4F
:10175A000550D8A0053C095E0650D8A0063C0A5E92
:10176A000750D8A0073C0B5EE86AD8A0010E0E5EAF
:10177A0011D008260550D8B0053C09260650D8B025
:10178A00063C0A260750D8B0073C0B26E86AD8B0B0
:10179A00010E0E2600360C2ED1D700B00ED0045002
:1017AA0008260550D8B0053C09260650D8B0063C94
:0C17BA000A260750D8B0073C0B2612008E
:1017C6000101386BF00E3515366F35C137F13737F5
:1017D6003791373737913737379137373791F00E9B
:1017E6003717A0EC01F03EEC00F04E0E01013A6F07
:1017F60016EC02F03EEC00F00101385136113A6F5A
:101806003A853A8716EC02F03EEC00F0420E0D6E79
:101816000D2EFED700000101385136113A6F3A8776
:1018260016EC02F03EEC00F0850E0D6E0D2EFED786
:101836000101385137113A6F3A853A8716EC02F0B2
:101846003EEC00F0420E0D6E0D2EFED7000001019B
:10185600385137113A6F3A8716EC02F03EEC00F039
:1018660079EC02F001013551010A09E10B0E0C6E0B
:10187600620E0D6E0D2EFED70C2EFCD70000120048
:101886000B6A0C6A086A0350D8B4C7EF0CF002C0A2
:101896000AF0028E9E0E035E03AEB7EF0CF0036CE9
:1018A600080E035CD8A084EF0CF0036E083600C067
:1018B60008F001C000F002C001F0026A080E035CE5
:1018C600D8A084EF0CF0036E083600C008F001C003
:1018D60000F0016A080E035CD8A084EF0CF0036EDA
:1018E600083600C008F0006A080E035CD8A084EF32
:1018F6000CF0036E0836086A0350D8A4D89090EF0F
:101906000CF00350D8B490EF0CF0D89002320132AC
:1019160000320832032E88EF0CF00BBC08A0A1EFB2
:101926000CF0D8A0A1EF0CF0082AD8B4002AD8B43D
:10193600012AD8B4022A02BECBEF0CF00AAEC7EFDA
:101946000CF0021E011E001E081E082AD8B4002A2A
:10195600D8B4012AD8B4022AC7EF0CF0026A016A89
:10196600006A086AC7EF0CF00B800BAED2EF0CF0E2
:10197600026A0AAED2EF0CF0026E016E006E086EBD
:101986000A360232D2EF0CF00C6A000ED3EF0CF0DE
:10199600010E0C6E000E7BEC02F0D3EF0CF0FF0E86
:1019A6000250036E0150026E0050016E0850006E28
:0219B60012001D
:1019B8000450000A12E10550000A0FE10650000A1F
:1019C8000CE10750000A09E1FF0E006EFF0E016EE0
:1019D8007F0E026EFF0E036EA8D0086A096A0750D0
:1019E800D8B487EF0DF00350D8B48CEF0DF0025047
:1019F80006180A6E028E068E0E6A02C008F001C032
:101A08000CF000C00DF004500D5E0550D8A0053C48
:101A18000C5E0650D8A0063C085E086A0C6A0D6A7F
:101A2800D8A01EEF0DF0D8900232013200320832F1
:101A3800010E0E6E0750035ED8A02BEF0DF07E0E40
:101A48000E240326D8B091EF0DF031EF0DF07E0E85
:101A58000E240326D8A096EF0DF0180E0B6E0D3647
:101A68000C3608360036013602360E360450005E53
:101A78000550D8A0053C015E0650D8A0063C025E81
:101A880006340E120EA04CEF0DF00D8057EF0DF03E
:101A9800045000260550D8B0053C01260650D8B0A1
:101AA800062802260D900B2E33EF0DF07DEF0DF07A
:101AB800D8900036013602360E360450005E0550C6
:101AC800D8A0053C015E0650D8A0063C025E06344C
:101AD8000E10010B0D26D8B00C2AD8B4082AD8A4A9
:101AE8007DEF0DF008320C320D32032AD8B491EF95
:101AF8000DF00AAE089E0850026E0C50016E0D5093
:101B0800006E99EF0DF0010E89EC02F099EF0DF0DF
:101B1800020E1AEC00F099EF0DF0040E0EEC00F036
:0C1B280099EF0DF0080E21EC00F0120007
:101B34000B6A0C6A0A6A086A0350D8B422EF0EF0E2
:101B4400028E9E0E035E03BEADEF0DF0D8B4ADEF72
:101B54000DF012EF0EF0036C080E035CD8A0DFEF5B
:101B64000DF0036E083600C008F001C000F002C09A
:101B740001F0026A080E035CD8A0DFEF0DF0036EDB
:101B8400083600C008F001C000F0016A080E035CCA
:101B9400D8A0DFEF0DF0036E083600C008F0006A2D
:101BA400080E035CD8A0DFEF0DF0036E0836086A58
:101BB4000350D8A4D890EBEF0DF00350D8B4EBEF5A
:101BC4000DF0D8900232013200320832032EE3EFD6
:101BD4000DF00BBC08A0FCEF0DF0D8A0FCEF0DF04D
:101BE400082AD8B4002AD8B4012AD8B4022A02BEDA
:101BF40026EF0EF00AAE22EF0EF0021E011E001EAA
:101C0400081E082AD8B4002AD8B4012AD8B4022A53
:101C140022EF0EF0026A016A006A086A22EF0EF0EF
:101C24000B800BAE2CEF0EF0026A0AAE2CEF0EF016
:101C3400026E016E006E086E0A3602322CEF0EF050
:101C4400000E0C6A2DEF0EF0010E0C6E7BEC02F010
:101C54002DEF0EF0FF0E0250036E0150026E005085
:081C6400016E0850006E120031
:101C6C000050086E0150006E0250016E0350026E5F
:101C7C00036A0B6A0C6A9E0E036E0A6A020E0C6EE5
:061C8C00AFEC00F01200B5
:101C92000450000A08E10550000A05E1FF0E006E3B
:101CA2007F0E016E58D00D6A096A086A0150001051
:101CB200D8B4000C015005180A6E0ABE0D1E0B6A3C
:101CC20005AE05D0041E051E042AD8B4052A01AEAD
:101CD20005D0001E011E002AD8B4012A01500510A9
:101CE2000A6E0ABE10D06CEC03F00BB020D00DAE21
:101CF200000C001E011E002AD8B4012A081E091E6B
:101D0200082AD8B4092A000C05AE0DD001BE07D0AE
:101D12000150096E0050086E016A006AE8D7016A34
:101D2200006A002A000C011E001E0B2ADDD7082AB9
:101D3200D8B4092A0450085CD8A4D9D70550095C44
:101D4200D8A4D5D7096A086A002AD8B4012A01AEF4
:081D5200CED70000FF0C1200C7
:101D5A000A6A0350D8A40A800750D8A40A820A50F3
:101D6A00D8B410EF0FF0030AD8B4C9EF0EF00AB0D6
:101D7A00C4EF0EF006AE0EEF0FF00CEF0FF002AE4E
:101D8A000CEF0FF00EEF0FF00250800B0A6E029E5E
:101D9A000650800B069E0A18D8B4DAEF0EF00A50E5
:101DAA00D8B40CEF0FF00EEF0FF00750035CD8B465
:101DBA00E4EF0EF0D8A000EF0FF006EF0FF0065098
:101DCA00025CD8B4EEEF0EF0D8A000EF0FF006EFE9
:101DDA000FF00550015CD8B4F8EF0EF0D8A000EF70
:101DEA000FF006EF0FF00450005CD8B410EF0FF0BC
:101DFA00D8B006EF0FF00A52D8B40EEF0FF00CEF7E
:101E0A000FF00A52D8B40CEF0FF00EEF0FF0D88093
:0E1E1A001200D8901200D880D8841200120056
:101E280001013551390806E3300E355D03E3010E33
:081E3800006E01D0006A1200E7
:101E40000450085E0550D8A0053C095E0650D8A095
:101E5000063C0A5E0750D8A0073C0B5E0336070E0F
:101E60000C6E0334083609360A360B36045003A0CC
:101E70000ED0085E0550D8A0053C095E0650D8A0DB
:101E8000063C0A5E0750D8A0073C0B5E0DD0082622
:101E90000550D8B0053C09260650D8B0063C0A26A5
:101EA0000750D8B0073C0B2603360C2EDAD7023485
:101EB000083609360A360B36045003A00ED0085EE9
:101EC0000550D8A0053C095E0650D8A0063C0A5E25
:101ED0000750D8A0073C0B5E0DD008260550D8B09F
:101EE000053C09260650D8B0063C0A260750D8B053
:101EF000073C0B260236070E0C6E023408360936F4
:101F00000A360B36045002A00ED0085E0550D8A049
:101F1000053C095E0650D8A0063C0A5E0750D8A0D2
:101F2000073C0B5E0DD008260550D8B0053C0926AD
:101F30000650D8B0063C0A260750D8B0073C0B26FE
:101F400002360C2EDAD70134083609360A360B363B
:101F5000045002A00ED0085E0550D8A0053C095ED2
:101F60000650D8A0063C0A5E0750D8A0073C0B5E7E
:101F70000DD008260550D8B0053C09260650D8B02B
:101F8000063C0A260750D8B0073C0B260136070E40
:101F90000C6E0134083609360A360B36045001A09F
:101FA0000ED0085E0550D8A0053C095E0650D8A0AA
:101FB000063C0A5E0750D8A0073C0B5E0DD00826F1
:101FC0000550D8B0053C09260650D8B0063C0A2674
:101FD0000750D8B0073C0B2601360C2EDAD7003458
:101FE000083609360A360B36045001A00ED0085EBA
:101FF0000550D8A0053C095E0650D8A0063C0A5EF4
:102000000750D8A0073C0B5E0DD008260550D8B06D
:10201000053C09260650D8B0063C0A260750D8B021
:10202000073C0B260036070E0C6E003408360936C6
:102030000A360B36045000A00ED0085E0550D8A01A
:10204000053C095E0650D8A0063C0A5E0750D8A0A1
:10205000073C0B5E0DD008260550D8B0053C09267C
:102060000650D8B0063C0A260750D8B0073C0B26CD
:1020700000360C2EDAD700B00ED0045008260550DA
:10208000D8B0053C09260650D8B0063C0A260750B1
:08209000D8B0073C0B2612003A
:10209800CAC0E1FFCBC0E2FF00C1E6FFC8C000F044
:0A20A800C9C001F032EC00F0120094
:1020B2000B1E0A1E091E081E082AD8B4092AD8B403
:0820C2000A2AD8B40B2A12000F
:0E20CA00C0C000F0C1C001F032EC00F0120006
:1020D8004EEC0AF0D0C035F155EC0AF00EC135F1DE
:1020E80055EC0AF00FC135F155EC0AF062EC0AF034
:0220F8001200D4
:1020FA00010E0101126F20D00F05006E0050800FF3
:10210A00356FE3EC0BF024D00F05006E0050C00FC2
:10211A00356FE3EC0BF01CD00F05006E0050940FE6
:10212A00356FE3EC0BF014D00F05006E0050D40F9E
:10213A00356FE3EC0BF00CD00E51010ADDE00E51C5
:10214A00020AE2E00E51030AE7E00E51040AECE04B
:10215A00F00E1015006F10C111F1113711911137DE
:10216A0011911137119111371191F00E1117A0EC3D
:10217A0001F03EEC00F04E0E01013A6F16EC02F04F
:10218A003EEC00F00101125100113A6F3A853A878C
:10219A0016EC02F03EEC00F0420E0D6E0D2EFED74C
:1021AA0000000101125100113A6F3A8716EC02F051
:1021BA003EEC00F0850E0D6E0D2EFED70101125178
:1021CA0011113A6F3A853A8716EC02F03EEC00F0AC
:1021DA00420E0D6E0D2EFED7000001011251111193
:1021EA003A6F3A8716EC02F03EEC00F079EC02F016
:0221FA001200D1
:1021FC0001012D6B2E6B216B226B10C100F011C1F4
:10220C0001F012C102F0010E1027000E112312234F
:10221C0000C0F6FF01C0F7FF02C0F8FF0900F5CFC0
:10222C0000F000C01EF10052D8B409EF21F01E518D
:10223C00250A0BE00EC1E1FF0FC1E2FF1EC1E6FF54
:10224C000E4B0F2B2D4B2E2BD8D71F6B206B216BCE
:10225C00226B23D02187010E1027000E112312238D
:10226C0059D02181010E1027000E1123122352D0B8
:10227C002183010E1027000E112312234BD022872D
:10228C00010E1027000E1123122344D02185010EBC
:10229C001027000E112312233DD010C1F6FF11C1DF
:1022AC00F7FF12C1F8FF0900F5CF01F001502D0A1C
:1022BC00D1E010C1F6FF11C1F7FF12C1F8FF090000
:1022CC00F5CF01F00150200ACCE010C1F6FF11C18E
:1022DC00F7FF12C1F8FF0900F5CF01F001502B0AEE
:1022EC00C7E010C1F6FF11C1F7FF12C1F8FF0900DA
:1022FC00F5CF01F00150230AC2E010C1F6FF11C165
:10230C00F7FF12C1F8FF0900F5CF01F00150300AB8
:10231C00BDE001D09ED721A301D0219121A701D0EE
:10232C00219510C1F6FF11C1F7FF12C1F8FF09008A
:10233C00F5CF00F0000E016E00C035F16FDD0052DC
:10234C0035E01F6B206B1FC100F020C101F00A0E9D
:10235C00046E000E056E26EC0AF010C1F6FF11C1DA
:10236C00F7FF12C1F8FF0900F5CF02F0025000246C
:10237C001F6F000E0120206F300E1F5F000E205BC0
:10238C00010E1027000E1123122310C1F6FF11C1EC
:10239C00F7FF12C1F8FF0900F5CF00F0000E016E37
:1023AC0000C035F13BDD0052CEE133D010C1F6FF59
:1023BC0011C1F7FF12C1F8FF0900F5CF01F0015070
:1023CC002A0A27E113C1E9FF14C1EAFFEECF00F09E
:1023DC00EECF01F000C0E9FF01C0EAFFEECF1FF124
:1023EC00EECF20F113C1E9FF14C1EAFF020EEE2477
:1023FC00006E000EEE20016E13C1E1FF14C1E2FF6E
:10240C0000C0E6FF01C0E6FF010E1027000E1123ED
:10241C00122310C1F6FF11C1F7FF12C1F8FF09001A
:10242C00F5CF01F001502E0A6FE1010E1027000EBE
:10243C001123122310C1F6FF11C1F7FF12C1F8FFCF
:10244C000900F5CF01F001502A0A28E113C1E9FF78
:10245C0014C1EAFFEECF00F0EECF01F000C0E9FFAF
:10246C0001C0EAFFEECF1CF1EECF1DF113C1E9FF65
:10247C0014C1EAFF020EEE24006E000EEE20016E77
:10248C0013C1E1FF14C1E2FF00C0E6FF01C0E6FF8B
:10249C00010E1027000E1123122335D01C6B1D6B5F
:1024AC0010C1F6FF11C1F7FF12C1F8FF0900F5CFFB
:1024BC0000F0000E016E00C035F1B0DC005223E0DC
:1024CC001CC100F01DC101F00A0E046E000E056E59
:1024DC0026EC0AF010C1F6FF11C1F7FF12C1F8FF8C
:1024EC000900F5CF02F0025000241C6F000E0120F1
:1024FC001D6F300E1C5F000E1D5B010E1027000EB1
:10250C0011231223CDD703D01C6B1D6B228910C154
:10251C0000F011C101F012C102F0010E1027000EE3
:10252C001123122300C0F6FF01C0F7FF02C0F8FF11
:10253C000900F5CF1EF1F9D02DC100F02EC101F02C
:10254C000DEF21F02189E3D722852ED1218B228119
:10255C002BD1228329D1218D27D126D1218B218FDB
:10256C0023D113C1E9FF14C1EAFFEECF00F0EECF87
:10257C0001F000C0E9FF01C0EAFFEECF29F1EECF78
:10258C002AF113C1E9FF14C1EAFF020EEE24006E1A
:10259C00000EEE20016E13C1E1FF14C1E2FF00C07A
:1025AC00E6FF01C0E6FF000E2A1902E1000E291910
:1025BC0004E1350E296F000E2A6F2B6B2C6B2B51FF
:1025CC002925E96E2C512A21EA6EEE520BE0010E00
:1025DC002B25006E000E2C21016E00C02BF101C0CA
:1025EC002CF1EDD71C511D110AE02C511D5D02E19F
:1025FC002B511C5D04E21CC12BF11DC12CF120518F
:10260C002C5D02E11F512B5D05E22B511F5F2C51FC
:10261C00205B02D01F6B206B21B716D01FC100F0BE
:10262C0020C101F0010E1F5F000E205B0050011055
:10263C000BE00EC1E1FF0FC1E2FF200EE66E0E4B68
:10264C000F2B2D4B2E2BEAD72BC102F02CC103F0F4
:10265C00010E2B5D006E000E2C59016E00C02BF18B
:10266C0001C02CF10250031019E029C1E9FF2AC165
:10267C00EAFF0EC1E1FF0FC1E2FFEECFE6FF0E4B0A
:10268C000F2B010E2925006E000E2A21016E00C0B1
:10269C0029F101C02AF12D4B2E2BD6D721A716D00C
:1026AC001FC100F020C101F0010E1F5F000E205B66
:1026BC00005001100BE00EC1E1FF0FC1E2FF200E34
:1026CC00E66E0E4B0F2B2D4B2E2BEAD796D513C146
:1026DC00E9FF14C1EAFFEECF00F0EECF01F000C02D
:1026EC00E9FF01C0EAFFEECF1EF113C1E9FF14C1EF
:1026FC00EAFF020EEE24006E000EEE20016E13C1F6
:10270C00E1FF14C1E2FF00C0E6FF01C0E6FF1E0EB0
:10271C00296F010E2A6F010E2B6F000E2C6F62D7E2
:10272C00C00E2113000E22133FD01E51000AD8B444
:10273C0003D71E516C0AD8B405D71E514C0AD8B415
:10274C0001D71E51660AD8B4FFD61E51450AD8B41B
:10275C00FDD61E51650AD8B4FAD61E51670AD8B4F4
:10276C00F8D61E516F0AD8B4F6D61E51640AD8B4E6
:10277C00F4D61E51690AD8B4F0D61E51700AD8B4DA
:10278C00EDD61E51580AD8B4E9D61E51780AD8B4E1
:10279C00E6D61E51730AD8B4E4D61E51630A97E0EC
:1027AC001E51750ABDE0B3D7000E2115006E2251E3
:1027BC00070B016E00500110D8B4B0EF1CF022A929
:1027CC0004D0060E1C6F000E1D6F13C1E9FF14C15F
:1027DC00EAFFEECF00F0EECF01F000C0E9FF01C040
:1027EC00EAFFEECF23F1EECF24F1EECF25F1EECFC1
:1027FC0026F113C1E9FF14C1EAFF040EEE24006EAA
:10280C00000EEE20016E13C1E1FF14C1E2FF00C007
:10281C00E6FF01C0E6FF046A056A066A076A23C17F
:10282C0000F024C101F025C102F026C103F0ADEC8B
:10283C000EF0010ED8B0000E006E005205E0257FA0
:10284C00030E2113000E2213276B286B23C100F0FB
:10285C0024C101F025C102F026C103F0046A056A07
:10286C00066A076ABAEC05F0000ED8A4010E006ED9
:10287C000052D8B48AD026C100F0016A026A036AF9
:10288C00FF0E0016000E01167E0E005E000E015AA1
:10289C0000C027F101C028F1010E005E000E015AA4
:1028AC0000C027F101C028F1030E046E000E056E66
:1028BC0026EC0AF000C027F101C028F10A0E046EC4
:1028CC00000E056E49EC0EF000C027F101C028F196
:1028DC00800E0118026E800E025C02E1000E005C9C
:1028EC0005E2010E0101275F000E285B0101275153
:1028FC000008356F48EC07F023C104F024C105F043
:10290C0025C106F026C107F0DCEC02F000C029F16D
:10291C0001C02AF102C02BF103C02CF1000E046E91
:10292C00000E056E000E066E7F0E076E29C100F0BC
:10293C002AC101F02BC102F02CC103F0ADEC0EF05A
:10294C00010ED8B0000E006E005205E0010E275F9C
:10295C00000E285B1AD0000E046E000E056E200EC1
:10296C00066E820E076E29C100F02AC101F02BC140
:10297C0002F02CC103F0ADEC0EF0000ED8B0010E3D
:10298C00006E005202E0274B282B800E006E800E4A
:10299C002819005C02E12751000803E3010E1E6FA9
:1029AC0002D027C11EF122B118D022A315D0800E5F
:1029BC002819006E7F0E005C02E1FC0E275D0BE314
:1029CC00800E2819006E800E1D19005C02E11C514E
:1029DC00275D01E201D001D0EFD31C511D1106E09F
:1029EC0022A304D0010E1C5F000E1D5B1D510008BC
:1029FC0002E11C51080803E2080E1E6F02D01CC134
:102A0C001EF123C100F024C101F025C102F026C142
:102A1C0003F0046A056A066A076ABAEC05F0000E50
:102A2C00D8A4010E006E0052D8B44BD127C135F199
:102A3C0048EC07F000C004F001C005F002C006F03D
:102A4C0003C007F023C100F024C101F025C102F03E
:102A5C0026C103F0DCEC0CF000C023F101C024F122
:102A6C0002C025F103C026F101011E510008356F8B
:102A7C0048EC07F000C004F001C005F002C006F0FD
:102A8C0003C007F023C100F024C101F025C102F0FE
:102A9C0026C103F0DCEC0CF000C02FF101C030F1CA
:102AAC0002C031F103C032F12FC123F130C124F146
:102ABC0031C125F132C126F12FC100F030C101F036
:102ACC0031C102F032C103F09AEC0DF036EC0EF08D
:102ADC0000C004F001C005F002C006F003C007F00E
:102AEC002FC100F030C101F031C102F032C103F04E
:102AFC0069EC0AF0000E046E000E056E000E066EF8
:102B0C007E0E076EADEC0EF0000ED8B0010E006E0E
:102B1C0000521AE023C100F024C101F025C102F0DB
:102B2C0026C103F0000E046E000E056E000E066E3C
:102B3C007E0E076EA7EC03F000C023F101C024F158
:102B4C0002C025F103C026F123C100F024C101F01D
:102B5C0025C102F026C103F09AEC0DF001011E51C3
:102B6C00010F096E0A6A000E0A2209C004F00AC09D
:102B7C0005F0000E0ABEFF0E066E076E04360490BA
:102B8C000536063607360436049005360636073603
:102B9C00D00E0424F66E5C0E0520F76E000E062097
:102BAC00F86E0900F5CF05F00900F5CF06F0090025
:102BBC00F5CF07F00900F5CF08F00850035C08E1E9
:102BCC000750025C05E10650015C02E10550005C17
:102BDC001EE3010123C100F024C101F025C102F064
:102BEC0026C103F0CD0E046ECC0E056E4C0E066E97
:102BFC007B0E076EDCEC02F000C023F101C024F167
:102C0C0002C025F103C026F1274B282B5AD023C133
:102C1C0000F024C101F025C102F026C103F09AECAA
:102C2C000DF01EC104F0000E056E066E076E043624
:102C3C0004900536063607360436049005360636FB
:102C4C000736D00E0424F66E5C0E0520F76E000ECF
:102C5C000620F86E0900F5CF05F00900F5CF06F057
:102C6C000900F5CF07F00900F5CF08F00850035C18
:102C7C0008E10750025C05E10650015C02E10550D9
:102C8C00005C1FE2010123C100F024C101F025C149
:102C9C0002F026C103F0000E046E000E056E200E2D
:102CAC00066E820E076EDCEC02F000C023F101C050
:102CBC0024F102C025F103C026F1010E275F000E9E
:102CCC00285B010122A393D022B791D0800E000A79
:102CDC00006E800E1D19005C02E11C510A0804E212
:102CEC000A0E1C6F000E1D6F23C100F024C101F0F1
:102CFC0025C102F026C103F09AEC0DF000C029F1B9
:102D0C0001C02AF102C02BF103C02CF129512A1168
:102D1C002B112C1142E00A0E046E000E056E066E8D
:102D2C00076E29C100F02AC101F02BC102F02CC1A1
:102D3C0003F06DEC0AF008C000F009C001F00AC005
:102D4C0002F00BC003F0000E046E031808E10450EF
:102D5C00021805E10450011802E10050000A1DE1BF
:102D6C00010E1C5F000E1D5B0A0E046E000E056E3C
:102D7C00066E076E29C100F02AC101F02BC102F0CA
:102D8C002CC103F06DEC0AF000C029F101C02AF14E
:102D9C0002C02BF103C02CF1B9D7800E1D19006EA7
:102DAC00800E005C02E11E511C5D21E21C511E5D77
:102DBC00356F48EC07F000C004F001C005F002C00C
:102DCC0006F003C007F023C100F024C101F025C1B7
:102DDC0002F026C103F0DCEC0CF000C023F101C0C2
:102DEC0024F102C025F103C026F11CC11EF1050E11
:102DFC0001011C25006E000E1D21016E00501F5F8D
:102E0C000150205B1C511D1103E122B701D004D0ED
:102E1C00010E1F5F000E205B030E2115006E22C1F8
:102E2C0001F0000E01160050011004E0010E1F5FAE
:102E3C00000E205B21A539D021A312D021A103D0F3
:102E4C002D0E006F02D02B0E006F0EC1E1FF0FC1D3
:102E5C00E2FF00C1E6FF0E4B0F2B2D4B2E2B0CD09F
:102E6C0021A10AD00EC1E1FF0FC1E2FF200EE66ED8
:102E7C000E4B0F2B2D4B2E2B800E006E800E20191F
:102E8C00005C02E11F5100080FE20EC1E1FF0FC10F
:102E9C00E2FF300EE66E0E4B0F2B2D4B2E2B010E40
:102EAC001F5F000E205BE8D73AD021B718D0800EF8
:102EBC00006E800E2019005C02E11F5100080FE229
:102ECC000EC1E1FF0FC1E2FF200EE66E0E4B0F2B81
:102EDC002D4B2E2B010E1F5F000E205BE8D721A37C
:102EEC0012D021A103D02D0E156F02D02B0E156F11
:102EFC000EC1E1FF0FC1E2FF15C1E6FF0E4B0F2B18
:102F0C002D4B2E2B0CD021A10AD00EC1E1FF0FC1ED
:102F1C00E2FF200EE66E0E4B0F2B2D4B2E2B23C1FA
:102F2C0000F024C101F025C102F026C103F09AEC97
:102F3C000DF000C029F101C02AF102C02BF103C031
:102F4C002CF11EC100F0000E016E026E036E0036F5
:102F5C0000900136023603360036009001360236F8
:102F6C000336D00E0024F66E5C0E0120F76E000EB8
:102F7C000220F86E0900F5CF04F00900F5CF05F03A
:102F8C000900F5CF06F00900F5CF07F029C100F0D4
:102F9C002AC101F02BC102F02CC103F06DEC0AF038
:102FAC00300E00260EC1E1FF0FC1E2FF00C0E6FFAC
:102FBC000E4B0F2B2D4B2E2B1C511D1103E122B749
:102FCC0001D06FD00EC1E1FF0FC1E2FF2E0EE66EF5
:102FDC000E4B0F2B2D4B2E2B1E511C5F000E1D5B11
:102FEC001E534DE01E071EC100F0000E016E026E56
:102FFC00036E003600900136023603360036009020
:10300C00013602360336D00E0024F66E5C0E01201B
:10301C00F76E000E0220F86E0900F5CF04F00900DF
:10302C00F5CF05F00900F5CF06F00900F5CF07F054
:10303C0029C100F02AC101F02BC102F02CC103F010
:10304C006DEC0AF00A0E046E000E056E066E076E2D
:10305C006DEC0AF008C000F009C001F00AC002F0E3
:10306C000BC003F0300E00260EC1E1FF0FC1E2FFD2
:10307C0000C0E6FF0E4B0F2B2D4B2E2BB1D71C5146
:10308C001D110FE00EC1E1FF0FC1E2FF300EE66E25
:10309C000E4B0F2B2D4B2E2B010E1C5F000E1D5BB0
:1030AC00EED721AB0BD00EC1E1FF0FC1E2FF450EF5
:1030BC00E66E0E4B0F2B2D4B2E2B0AD00EC1E1FFC3
:1030CC000FC1E2FF650EE66E0E4B0F2B2D4B2E2B18
:1030DC00800E2819006E800E005C02E1000E275D48
:1030EC0011E227510008276F2851000E28570EC1F6
:1030FC00E1FF0FC1E2FF2D0EE66E0E4B0F2B2D4B99
:10310C002E2B0AD00EC1E1FF0FC1E2FF2B0EE66E93
:10311C000E4B0F2B2D4B2E2B0A0E046E000E056E34
:10312C0027C100F028C101F049EC0EF0300E00264A
:10313C000EC1E1FF0FC1E2FF00C0E6FF01010E4B23
:10314C000F2B2D4B2E2B0A0E046E000E056E27C175
:10315C0000F028C101F049EC0EF008C000F009C0E5
:10316C0001F0300E00260EC1E1FF0FC1E2FF00C0DE
:10317C00E6FF01010E4B0F2B2D4B2E2B21A71AD046
:10318C00800E006E800E2019005C02E11F510008B9
:10319C0011E20EC1E1FF0FC1E2FF200EE66E0E4BF5
:1031AC000F2B2D4B2E2B010E1F5F000E205B1F5182
:1031BC002011EFE103EF11F022A3F3D0800E2819B8
:1031CC00006E800E005C02E1000E275D0AE2010E2B
:1031DC00275D006E000E2859016E00501C5F0150D7
:1031EC001D5B23C100F024C101F025C102F026C1F2
:1031FC0003F09AEC0DF000C029F101C02AF102C0D5
:10320C002BF103C02CF1010E1E6F1E510A0A34E083
:10321C001EC100F0000E016E026E036E00360090AF
:10322C00013602360336003600900136023603367C
:10323C00D00E0024F66E5C0E0120F76E000E0220FC
:10324C00F86E0900F5CF01F00900F5CF02F0090086
:10325C00F5CF03F00900F5CF04F004502C5D08E124
:10326C0003502B5D05E102502A5D02E10150295DFE
:10327C0001E202D01E2BC9D71E511C5D336F000E0C
:10328C001D59346F33C11CF134C11DF129C100F03B
:10329C002AC101F02BC102F02CC103F036EC0EF068
:1032AC0000C004F001C005F002C006F003C007F036
:1032BC0023C100F024C101F025C102F026C103F0A6
:1032CC0069EC0AF000C02FF101C030F102C031F1FD
:1032DC0003C032F133C135F148EC07F02FC104F0D3
:1032EC0030C105F031C106F032C107F0DCEC02F060
:1032FC00000E046E000E056E000E066E7E0E076E3E
:10330C00A7EC03F09AEC0DF000C029F101C02AF1F2
:10331C0002C02BF103C02CF11C511D1142E00A0E0E
:10332C00046E000E056E066E076E29C100F02AC1F0
:10333C0001F02BC102F02CC103F06DEC0AF008C0B7
:10334C0000F009C001F00AC002F00BC003F0000E3F
:10335C00046E031808E10450021805E1045001182A
:10336C0002E10050000A1DE10A0E046E000E056E0B
:10337C00066E076E29C100F02AC101F02BC102F0C4
:10338C002CC103F06DEC0AF000C029F101C02AF148
:10339C0002C02BF103C02CF1010E1C5F000E1D5B53
:1033AC00BBD7800E006E800E1D19005C02E11C5113
:1033BC000C0816E31CC135F1D1EC05F023C104F067
:1033CC0024C105F025C106F026C107F0A7EC03F0D7
:1033DC0000C023F101C024F102C025F103C026F185
:1033EC0023C100F024C101F025C102F026C103F075
:1033FC00046A056A066A076ABAEC05F0000ED8A4DE
:10340C00010E006E0052D8B477D023C100F024C155
:10341C0001F025C102F026C103F09AEC0DF0000E6C
:10342C00046E031808E10450021805E10450011859
:10343C0002E10050000A60E1800E006E800E281937
:10344C00005C02E12751010857E227C135F148EC35
:10345C0007F000C004F001C005F002C006F003C084
:10346C0007F023C100F024C101F025C102F026C1F0
:10347C0003F0DCEC0CF05F0E046E700E056E090EA2
:10348C00066E810E076EADEC0EF0010ED8B0000E7C
:10349C00006E005206E0090E0101275F000E285B4A
:1034AC0005D00101080E275F000E285B27C135F1FE
:1034BC0048EC07F000C004F001C005F002C006F0B3
:1034CC0003C007F023C100F024C101F025C102F0B4
:1034DC0026C103F0DCEC0CF09AEC0DF000C029F1E5
:1034EC0001C02AF102C02BF103C02CF10101236BA6
:1034FC00246B256B266B38D023C100F024C101F05E
:10350C0025C102F026C103F09AEC0DF000C029F1A0
:10351C0001C02AF102C02BF103C02CF129C100F02B
:10352C002AC101F02BC102F02CC103F036EC0EF0D5
:10353C0000C004F001C005F002C006F003C007F0A3
:10354C0023C100F024C101F025C102F026C103F013
:10355C0069EC0AF000C023F101C024F102C025F18E
:10356C0003C026F1276B286B010E1E6F1E510A0A31
:10357C0034E01EC100F0000E016E026E036E0036C8
:10358C0000900136023603360036009001360236C2
:10359C000336D00E0024F66E5C0E0120F76E000E82
:1035AC000220F86E0900F5CF01F00900F5CF02F00A
:1035BC000900F5CF03F00900F5CF04F004502C5DA1
:1035CC0008E103502B5D05E102502A5D02E1015038
:1035DC00295D01E202D01E2BC9D71E511C25006E9D
:1035EC00000E1D21016E275100262851012200508A
:1035FC001F5F0150205B22B704D01C511D1101E14B
:10360C0004D0010E1F5F000E205B030E2115006E0F
:10361C0022C101F0000E01160050011004E0010E51
:10362C001F5F000E205B21A539D021A312D021A150
:10363C0003D02D0E166F02D02B0E166F0EC1E1FFAC
:10364C000FC1E2FF16C1E6FF0E4B0F2B2D4B2E2B9D
:10365C000CD021A10AD00EC1E1FF0FC1E2FF200E58
:10366C00E66E0E4B0F2B2D4B2E2B800E006E800E0C
:10367C002019005C02E11F5100080FE20EC1E1FFAE
:10368C000FC1E2FF300EE66E0E4B0F2B2D4B2E2B87
:10369C00010E1F5F000E205BE8D73AD021B718D07F
:1036AC00800E006E800E2019005C02E11F51000894
:1036BC000FE20EC1E1FF0FC1E2FF200EE66E0E4BD2
:1036CC000F2B2D4B2E2B010E1F5F000E205BE8D70E
:1036DC0021A312D021A103D02D0E176F02D02B0ED7
:1036EC00176F0EC1E1FF0FC1E2FF17C1E6FF0E4BD2
:1036FC000F2B2D4B2E2B0CD021A10AD00EC1E1FF8C
:10370C000FC1E2FF200EE66E0E4B0F2B2D4B2E2B16
:10371C001EC100F01E0700524CE01EC100F0000E4E
:10372C00016E026E036E00360090013602360336CF
:10373C0000360090013602360336D00E0024F66EA9
:10374C005C0E0120F76E000E0220F86E0900F5CF1A
:10375C0004F00900F5CF05F00900F5CF06F00900DB
:10376C00F5CF07F029C100F02AC101F02BC102F0FE
:10377C002CC103F06DEC0AF00A0E046E000E056EFF
:10378C00066E076E6DEC0AF008C000F009C001F07F
:10379C000AC002F00BC003F0300E00260EC1E1FF90
:1037AC000FC1E2FF00C0E6FF0E4B0F2B2D4B2E2B53
:1037BC00AFD7800E006E800E2819005C02E12751F5
:1037CC0000080FE20EC1E1FF0FC1E2FF300EE66E02
:1037DC000E4B0F2B2D4B2E2B010E275F000E285B53
:1037EC00E8D7800E000A006E800E1D19005C02E105
:1037FC001C51080803E2080E1E6F02D01CC11EF1FA
:10380C001E511C5F000E1D5B1E5303E122B701D03D
:10381C000AD00EC1E1FF0FC1E2FF2E0EE66E0E4B79
:10382C000F2B2D4B2E2B1EC135F148EC07F023C16D
:10383C0004F024C105F025C106F026C107F0DCEC2C
:10384C0002F043EC0CF000C029F101C02AF102C0D7
:10385C002BF103C02CF11E534DE01E071EC100F0CE
:10386C00000E016E026E036E0036009001360236B9
:10387C00033600360090013602360336D00E002493
:10388C00F66E5C0E0120F76E000E0220F86E090039
:10389C00F5CF04F00900F5CF05F00900F5CF06F0DF
:1038AC000900F5CF07F029C100F02AC101F02BC1A6
:1038BC0002F02CC103F06DEC0AF00A0E046E000E3F
:1038CC00056E066E076E6DEC0AF008C000F009C0BC
:1038DC0001F00AC002F00BC003F0300E00260EC13E
:1038EC00E1FF0FC1E2FF00C0E6FF0E4B0F2B2D4B8B
:1038FC002E2BB1D71C511D110FE00EC1E1FF0FC1D2
:10390C00E2FF300EE66E0E4B0F2B2D4B2E2B010EC5
:10391C001C5F000E1D5BEED721A71AD0800E006E27
:10392C00800E2019005C02E11F51000811E20EC14B
:10393C00E1FF0FC1E2FF200EE66E0E4B0F2B2D4B5D
:10394C002E2B010E1F5F000E205B1F512011EFE18B
:10395C0003EF11F0C00E2115016E22C102F0000E12
:10396C000216000E021802E1000E0118D8A480D035
:10397C0021A927D013C1E9FF14C1EAFFEECF00F053
:10398C00EECF01F000C0E9FF01C0EAFFEECF29F154
:10399C00EECF2AF1EECF2BF1EECF2CF113C1E9FFD4
:1039AC0014C1EAFF040EEE24006E000EEE20016E30
:1039BC0013C1E1FF14C1E2FF00C0E6FF01C0E6FF46
:1039CC002FD013C1E9FF14C1EAFFEECF00F0EECF08
:1039DC0001F000C0E9FF01C0EAFFEECF00F0EECF2E
:1039EC0001F0000E01BEFF0E026E036E00C029F145
:1039FC0001C02AF102C02BF103C02CF113C1E9FF65
:103A0C0014C1EAFF020EEE24006E000EEE20016ED1
:103A1C0013C1E1FF14C1E2FF00C0E6FF01C0E6FFE5
:103A2C00800E2C19006E800E005C08E1000E2B5DE0
:103A3C0005E1000E2A5D02E1000E295D18E2030E7D
:103A4C002113000E2213006A016A026A036A2951CB
:103A5C00005E2A51015A2B51025A2C51035A00C0B4
:103A6C0029F101C02AF102C02BF103C02CF14ED078
:103A7C0021A927D013C1E9FF14C1EAFFEECF00F052
:103A8C00EECF01F000C0E9FF01C0EAFFEECF29F153
:103A9C00EECF2AF1EECF2BF1EECF2CF113C1E9FFD3
:103AAC0014C1EAFF040EEE24006E000EEE20016E2F
:103ABC0013C1E1FF14C1E2FF00C0E6FF01C0E6FF45
:103ACC0025D013C1E9FF14C1EAFFEECF00F0EECF11
:103ADC0001F000C0E9FF01C0EAFFEECF29F1EECF03
:103AEC002AF1000E2B6F2C6F13C1E9FF14C1EAFFF2
:103AFC00020EEE24006E000EEE20016E13C1E1FFEB
:103B0C0014C1E2FF00C0E6FF01C0E6FF000E1D1964
:103B1C0002E1000E1C190FE1000E006E2C1908E1D9
:103B2C0000502B1905E100502A1902E12951000A15
:103B3C0002E11C4B1D2BC00E2115006E00C005F0C0
:103B4C00AED0010E1E6F1E510A0A34E01EC100F0E9
:103B5C00000E016E026E036E0036009001360236C6
:103B6C00033600360090013602360336D00E0024A0
:103B7C00F66E5C0E0120F76E000E0220F86E090046
:103B8C00F5CF01F00900F5CF02F00900F5CF03F0F5
:103B9C000900F5CF04F004502C5D08E103502B5DB7
:103BAC0005E102502A5D02E10150295D01E202D0DB
:103BBC001E2BC9D782D0010E1E6F1E51080A34E08D
:103BCC001EC100F0000E016E026E036E00360090F6
:103BDC0001360236033600360090013602360336C3
:103BEC00F80E0024F66E5C0E0120F76E000E02201B
:103BFC00F86E0900F5CF01F00900F5CF02F00900CD
:103C0C00F5CF03F00900F5CF04F004502C5D08E16A
:103C1C0003502B5D05E102502A5D02E10150295D44
:103C2C0001E202D01E2BC9D748D0010E1E6F1E51C7
:103C3C000C0A34E01EC100F0000E016E026E036E21
:103C4C0000360090013602360336003600900136FD
:103C5C0002360336A00E0024F66E5C0E0120F76EC1
:103C6C00000E0220F86E0900F5CF01F00900F5CF27
:103C7C0002F00900F5CF03F00900F5CF04F0045071
:103C8C002C5D08E103502B5D05E102502A5D02E139
:103C9C000150295D01E202D01E2BC9D70ED0055070
:103CAC00000AD8B44ED70550C00AD8B44AD705502C
:103CBC00800A81E00550400AB8E0800E006E800E4C
:103CCC001D19005C02E11C511E5D03E21CC11EF1BA
:103CDC000DD0800E1D19006E800E005C02E11E518D
:103CEC001C5D04E21EC11CF1000E1D6F1F51201142
:103CFC000EE0030E2115006E22C101F0000E01161C
:103D0C000050011004E0010E1F5F000E205B800EBE
:103D1C001D19006E800E2019005C02E11F511C5D04
:103D2C0005E21C511F5F1D51205B02D01F6B206BE5
:103D3C00C40E2115016E2251080B026E0250080AA6
:103D4C0002E1400E011808E11F51201104E0010EA0
:103D5C001F5F000E205B1CD0C00E2115016E22517E
:103D6C00080B026E0250080A02E1800E011810E1E5
:103D7C00800E006E800E2019005C02E11F510208BB
:103D8C0005E2020E1F5F000E205B02D01F6B206B42
:103D9C0021A55DD021A312D021A103D02D0E186F27
:103DAC0002D02B0E186F0EC1E1FF0FC1E2FF18C13C
:103DBC00E6FF0E4B0F2B2D4B2E2B34D021A10BD00D
:103DCC000EC1E1FF0FC1E2FF200EE66E0E4B0F2B72
:103DDC002D4B2E2B27D0C00E2115016E2251080B16
:103DEC00026E0250080A02E1800E01181BE10EC19E
:103DFC00E1FF0FC1E2FF300EE66E0E4B0F2B2D4B89
:103E0C002E2B21AB03D0580E196F02D0780E196FE0
:103E1C000EC1E1FF0FC1E2FF19C1E6FF0E4B0F2BE4
:103E2C002D4B2E2B1F51201111E00EC1E1FF0FC1A4
:103E3C00E2FF300EE66E0E4B0F2B2D4B2E2B010E90
:103E4C001F5F000E205B1F512011EFE174D01F513A
:103E5C00201113E021B711D00EC1E1FF0FC1E2FF19
:103E6C00200EE66E0E4B0F2B2D4B2E2B010E1F5FD3
:103E7C00000E205B1F512011EFE121A312D021A1D4
:103E8C0003D02D0E1A6F02D02B0E1A6F0EC1E1FF4C
:103E9C000FC1E2FF1AC1E6FF0E4B0F2B2D4B2E2B41
:103EAC000CD021A10AD00EC1E1FF0FC1E2FF200E00
:103EBC00E66E0E4B0F2B2D4B2E2BC00E2115016ECB
:103ECC002251080B026E0250080A02E1400E011842
:103EDC000BE10EC1E1FF0FC1E2FF300EE66E0E4B9F
:103EEC000F2B2D4B2E2B27D0C00E2115016E2251DE
:103EFC00080B026E0250080A02E1800E01181BE149
:103F0C000EC1E1FF0FC1E2FF300EE66E0E4B0F2B20
:103F1C002D4B2E2B21AB03D0580E1B6F02D0780EDD
:103F2C001B6F0EC1E1FF0FC1E2FF1BC1E6FF0E4B81
:103F3C000F2B2D4B2E2B800E006E800E1D19005C4E
:103F4C0002E11C511E5D0BE20EC1E1FF0FC1E2FF4D
:103F5C00300EE66E0E4B0F2B2D4B2E2BECD71CC1BF
:103F6C0000F01DC101F0010E1C5F000E1D5B005026
:103F7C000110D8B42AD1C00E2115006E00C02FF14B
:103F8C000AD11CC100F01DC101F0000E1DBFFF0EB7
:103F9C00026E036E00360090013602360336003690
:103FAC000090013602360336D00E0024F66E5C0EFD
:103FBC000120F76E000E0220F86E0900F5CF04F018
:103FCC000900F5CF05F00900F5CF06F00900F5CF93
:103FDC0007F029C100F02AC101F02BC102F02CC15D
:103FEC0003F06DEC0AF00A0E046E000E056E066E00
:103FFC00076E6DEC0AF008C000F009C001F00AC0B1
:10400C0002F00BC003F0300E00241E6FD3D021AB96
:10401C0045D01CC100F01DC101F0000E1DBFFF0EEC
:10402C00026E036E003600900136023603360036FF
:10403C000090013602360336F80E0024F66E5C0E44
:10404C000120F76E000E0220F86E0900F5CF04F087
:10405C000900F5CF05F00900F5CF06F00900F5CF02
:10406C0007F029C100F02AC101F02BC102F02CC1CC
:10407C0003F06DEC0AF00F0E0016000E011602167E
:10408C0003162B0E0024F66E5D0E0120F76E000E4B
:10409C000220F86E0900F5CF1EF144D01CC100F0CF
:1040AC001DC101F0000E1DBFFF0E026E036E003627
:1040BC000090013602360336003600900136023687
:1040CC000336F80E0024F66E5C0E0120F76E000E1F
:1040DC000220F86E0900F5CF04F00900F5CF05F0C9
:1040EC000900F5CF06F00900F5CF07F029C100F063
:1040FC002AC101F02BC102F02CC103F06DEC0AF0C7
:10410C000F0E0016000E0116021603163C0E0024AC
:10411C00F66E5D0E0120F76E000E0220F86E09009F
:10412C00F5CF1EF147D01CC100F01DC101F0000EEF
:10413C001DBFFF0E026E036E003600900136023674
:10414C00033600360090013602360336A00E0024EA
:10415C00F66E5C0E0120F76E000E0220F86E090060
:10416C00F5CF04F00900F5CF05F00900F5CF06F006
:10417C000900F5CF07F029C100F02AC101F02BC1CD
:10418C0002F02CC103F06DEC0AF0070E00141E6F48
:10419C00300E1E270FD02F51000AD8B4F2D62F5153
:1041AC00C00AD8B4EED62F51800AD8B430D72F51CC
:1041BC00400AB9E00EC1E1FF0FC1E2FF1EC1E6FFEC
:1041CC000E4B0F2B2D4B2E2BCAD621A71AD0800E9F
:1041DC00006E800E2019005C02E11F51000811E2F4
:1041EC000EC1E1FF0FC1E2FF200EE66E0E4B0F2B4E
:1041FC002D4B2E2B010E1F5F000E205B1F5120112B
:10420C00EFE103EF11F02DC100F02EC101F012000F
:10421C00050E006E06C1FDF0005005E00001FD37F3
:10422C00FD91FF0FFAD7000105C100F00036009098
:10423C00003600900050FD13FC0EFD17050E006EAD
:10424C0002C1FCF0005004E0FC37FC91FF0FFBD7DF
:10425C0004C100F000360090003600900050FC13B2
:10426C00010101510001FC13F20E01010E6F03C19B
:10427C000FF16CEC10F0F50E01010E6FFDC00FF19B
:10428C006CEC10F0F40E01010E6FFCC00FF16CEC35
:04429C0010F012000C
:1042A000FEC0E9FFFFC0EAFFEE5211E0FCC00EF1D4
:1042B000FDC00FF1FEC0E9FFFFC0EAFFEECF10F135
:1042C0007DEC10F00001FD2BFE4BFF2BE9D7120017
:1042D000800E0001FD19006E800E005C02E1000EF0
:1042E000FC5D08E2FC510008006EFDC001F0000E0C
:0E42F000015604D0FCC000F0FDC001F0120029
:1042FE00220E0C6E086A096A0A6A0B6A0C06D8B49A
:10430E001FD0D8900B320A320932083203320232F1
:10431E0001320032D8A0F2D70C06D8B409D004501E
:10432E0008260550092206500A2207500B22EAD70A
:10433E00045008260550092206500A2207500B2267
:02434E0012005B
:104350004EEC0AF0D0C035F155EC0AF0FCC035F156
:1043600055EC0AF065EC10F0010E0001D0110101CE
:10437000356F55EC0AF00101006B4CEC10F000C0F9
:0C438000FDF062EC0AF0FDC000F012003D
:10438C00060E0001FE6F010EFF6F01C10EF102C19E
:10439C000FF103C110F104C111F105C112F1FE0EB0
:1043AC000101136F000E146FFEEC10F000C0FCF056
:1043BC0001C0FDF000500125E16E01500221E26EBA
:0C43CC00E66AFCC000F0FDC001F0120029
:1043D8004EEC0AF0D0C035F155EC0AF0FCC035F1CE
:1043E80055EC0AF065EC10F0010E0001D011010146
:1043F800356F55EC0AF0010E0101006F4CEC10F01E
:1044080000C0FDF00101006B4CEC10F000C0FEF0A4
:0E44180062EC0AF0FDC000F0FEC001F01200E0
:104426000001FF6B4EEC0AF0D0C035F155EC0AF0F6
:10443600F70E0101356F55EC0AF065EC10F0010E30
:104446000001D0110101356F55EC0AF0010E010192
:10445600006F4CEC10F000C0FEF0010E0101006F81
:104466004CEC10F000C0FDF0010E0101006F4CECA9
:1044760010F000C0FCF0040E006EFCC0CCF0FDC0D5
:10448600CDF0FEC0CEF0FFC0CFF0005008E0000136
:10449600CF33CE33CD33CC33CF9FFF0FF7D70001C9
:1044A600FF0ECC17FF0ECD170F0ECE17000ECF172F
:1044B600010E0101006F4CEC10F000C0FEF0010E81
:1044C6000101006F4CEC10F000C0FDF0010E01017F
:1044D600006F4CEC10F000C0FCF0040E006EFCC047
:1044E60083F0FDC084F0FEC085F0FFC086F000506A
:1044F60008E000018633853384338333869FFF0FBC
:10450600F7D70001FF0E8317FF0E84170F0E8517CE
:10451600000E8617FE6B010E0101006F4CEC10F0C9
:1045260000C0FDF00101006B4CEC10F000C0FCF087
:1045360062EC0AF0FF0E0001FC157F6FFF0EFD1501
:10454600806FFEC081F0FFC082F0000E81178217D7
:02455600120051
:104558000450000A12E10550000A0FE10650000A53
:104568000CE10750000A09E1FF0E006EFF0E016E14
:10457800FF0E026E7F0E036E99D00C6A07BE0C2ADE
:104588000D6A0B6A0A6A096A086A03500210011068
:104598000010D8B485D0035007180E6E0EBE0D1E3D
:1045A80007AE0BD0041E051E061E071E042AD8B42B
:1045B800052AD8B4062AD8B4072A03AE0BD0001EA1
:1045C800011E021E031E002AD8B4012AD8B4022AEA
:1045D800D8B4032A035007100E6E0EBE1DD020EC6F
:1045E8000FF00CBE36D00DAE5BD0001E011E021EB1
:1045F800031E002AD8B4012AD8B4022AD8B4032A40
:10460800081E091E0A1E0B1E082AD8B4092AD8B487
:104618000A2AD8B40B2A44D007AE15D003BE0DD051
:1046280003500B6E02500A6E0150096E0050086E5E
:10463800036A026A016A006AD6D7036A026A016AD3
:10464800006A002A000C031E021E011E001E0C8EAA
:10465800C6D7082AD8B4092AD8B40A2AD8B40B2A43
:104668000450085CD8A4BFD70550095CD8A4BBD7B0
:1046780006500A5CD8A4B7D707500B5CD8A4B3D7A8
:104688000B6A0A6A096A086A002AD8B4012AD8B4E7
:10469800022AD8B4032A03AEA6D70E6A0E88FF0CE6
:0E46A8000E6A0CA002D059EC10F0000F1200A8
:1046B6000001E36BE26B020EE25D25E2A0EC01F085
:1046C6000001E251000A0CE1EC0E01013A6F16EC12
:1046D60002F00050000A03E1EC0E0001E36F0BD07C
:1046E600EE0E01013A6F16EC02F00050000A03E1EB
:1046F600EE0E0001E36F000179EC02F0E35301E0F6
:0C47060002D0E22BD8D7E3C000F0120074
:104712007C0E0001B06F000EB16F000EB26F000E82
:10472200B36F400EB46F030EB56F000EB66F000E7E
:10473200B76FD40EC06F030EC16F000EC26F000EB2
:10474200C36F960EC86F000EC96F3A0ECA6F010E84
:10475200CB6F2C0EBC6F040EBD6F3A0EBE6F010EF6
:10476200BF6FF20EC46F040EC56F000EC66F000E4F
:10477200C76F939093928A908A9293809382C79EF6
:08478200C79C380EC66E120040
:10478A00D00E0001FC6FDFDD0050600A02E0006A13
:10479A0025D1E00E01010E6FB60E0F6F6CEC10F012
:1047AA00030E0B6E080E0C6E770E0D6E0D2EFED7D5
:1047BA000C2EFCD70B2EFAD7F30E0001FC6FC3DDCB
:1047CA00010E0014016E0150010A0DE1030E0B6E79
:1047DA00080E0C6E770E0D6E0D2EFED70C2EFCD722
:1047EA000B2EFAD7E9D7880E0001FC6FF0DD00C066
:1047FA008FF001C090F08A0E0001FC6FE8DD00C066
:10480A0091F001C092F08C0E0001FC6FE0DD00C057
:10481A0093F001C094F08E0E0001FC6FD8DD00C049
:10482A0095F001C096F0900E0001FC6FD0DD00C03B
:10483A0097F001C098F0920E0001FC6FC8DD00C02D
:10484A0099F001C09AF0940E0001FC6FC0DD00C01F
:10485A009BF001C09CF0960E0001FC6FB8DD00C011
:10486A009DF001C09EF0980E0001FC6FB0DD00C003
:10487A009FF001C0A0F09A0E0001FC6FA8DD00C0F5
:10488A00A1F001C0A2F09C0E0001FC6FA0DD00C0E7
:10489A00A3F001C0A4F09E0E0001FC6F98DD00C0D9
:1048AA00A5F001C0A6F0A10E0001FC6F4CDD00C00E
:1048BA00A7F0E10E0001FC6F8ADD00C0A8F001C07C
:1048CA00A9F0E30E0001FC6F3EDD00C0AAF0E40E81
:1048DA000001FC6F38DD00C001F0000E026E01C05D
:1048EA00E8F002C0E9F00001E837E891E937E83773
:1048FA00E891E937E837E891E937E837E891E937A5
:10490A00E50EFC6F20DD0F0E001600500001E811C5
:10491A00026EE9C003F0000E031202C0ABF003C03E
:10492A00ACF003A60AD0000EAB11006EAC51F00930
:10493A00016E00C0ABF001C0ACF0E60EFC6F03DD07
:10494A0000C001F0000E026E01C0E8F002C0E9F0FA
:10495A000001E837E891E937E837E891E937E837BD
:10496A00E891E937E837E891E937E50EFC6FEBDCC7
:10497A0000C001F00132019E0132019E0132019E06
:10498A000132019E01500001E811026EE9C003F0F4
:10499A00000E031202C0ADF003C0AEF003A60AD0A7
:1049AA00000EAD11006EAE51F009016E00C0ADF0FF
:1049BA0001C0AEF0E70EFC6FC6DC00C0AFF0E2C08B
:1049CA0001F1E3C002F1E4C003F1E5C004F1E6C07D
:0E49DA0005F1E7C006F11DDC010E006E1200B3
:1049E8000001E26BA0EC01F03EEC00F04E0E01017C
:1049F8003A6F16EC02F03EEC00F0100E0C6E940EBE
:104A08000D6E0D2EFED70C2EFCD70000300E0001C7
:104A1800E21101013A6F3A853A8716EC02F03EEC52
:104A280000F0420E0D6E0D2EFED70000300E000174
:104A3800E21101013A6F3A8716EC02F03EEC00F001
:104A4800060E0C6E300E0D6E0D2EFED70C2EFCD7FA
:104A58000000300E0001E21101013A6F3A853A87F1
:104A680016EC02F03EEC00F0420E0D6E0D2EFED755
:104A78000000300E0001E21101013A6F3A8716EC8E
:104A880002F03EEC00F0060E0C6E300E0D6E0D2E90
:104A9800FED70C2EFCD70000300E0001E2110101F8
:104AA8003A6F3A853A8716EC02F03EEC00F0420E77
:104AB8000D6E0D2EFED70000300E0001E21101012F
:104AC8003A6F3A8716EC02F03EEC00F0060E0C6ED8
:104AD800300E0D6E0D2EFED70C2EFCD70000200ECA
:104AE8000001E21101013A6F3A853A8716EC02F0AB
:104AF8003EEC00F0420E0D6E0D2EFED70000200E8B
:104B08000001E21101013A6F3A8716EC02F03EEC1F
:104B180000F079EC02F0060E0C6E300E0D6E0D2EC4
:104B2800FED70C2EFCD70000280E0101356FE3ECF0
:104B38000BF0060E356FE3EC0BF00C0E356FE3EC63
:0C4B48000BF0010E356FE3EC0BF01200D7
:104B5400010E0101356FE3EC0BF0010E0001FC6F57
:104B6400010EFD6F1E0EFE6F000EFF6F50EC21F064
:104B7400800E00018E19006E800E005C08E1000EAC
:104B84008D5D05E1000E8C5D02E1000E8B5D4CE253
:104B9400640E046E000E056E066E076E8BC000F088
:104BA4008CC001F08DC002F08EC003F0D3DC08C0CD
:104BB40000F009C001F00AC002F00BC003F000C00D
:104BC400FCF001C0FDF068EC21F000C0E2F001C08F
:104BD400E3F0640E046E000E056E066E076E8BC065
:104BE40000F08CC001F08DC002F08EC003F0B2DC86
:104BF40000C0FCF001C0FDF068EC21F000C006F13B
:104C040001C007F1670E0101016F000E026F5A0E19
:104C1400036F5D0E046F000E056FE2C008F1E3C080
:104C240009F1C6EC21F043D00101670E016F000EBB
:104C3400026F6F0E036F5D0E046F000E056F640E3E
:104C4400046E000E056E066E076E8BC000F08CC0FD
:104C540001F08DC002F08EC003F07CDC00C006F1D0
:104C640001C007F102C008F103C009F1640E046E2B
:104C7400000E056E066E076E8BC000F08CC001F04E
:104C84008DC002F08EC003F065DC08C000F009C0DE
:104C940001F00AC002F00BC003F000C00AF101C029
:104CA4000BF102C00CF103C00DF1C6EC21F0020EB1
:104CB4000001FC6F010EFD6F670EFE6F000EFF6FAB
:064CC40050EC21F012008B
:104CCA00010E0101356FE3EC0BF0010E0001FC6FE0
:104CDA00010EFD6F150EFE6F000EFF6F50EC21F0F6
:104CEA00670E0101016F000E026F790E036F5D0EF0
:104CFA00046F000E056F0A0E006E87C006F188C0A9
:104D0A0007F189C008F18AC009F1005007E00933A8
:104D1A00083307330633099FFF0FF8D787C000F01F
:104D2A0088C001F089C002F08AC003F0640E046EE4
:104D3A00000E056E066E076E7FEC21F00A0E086EF5
:104D4A0000C004F001C005F002C006F003C007F07D
:104D5A00085007E00732063205320432079EFF0F79
:104D6A00F8D704C000F005C001F006C002F007C081
:104D7A0003F0640E046E000E056E066E076E6DEC8F
:104D8A000AF008C000F009C001F00AC002F00BC026
:104D9A0003F000C00AF101C00BF102C00CF103C01C
:104DAA000DF1C6EC21F0020E0001FC6F010EFD6F41
:0E4DBA00670EFE6F000EFF6F50EC21F012002E
:104DC800010E0101356FE3EC0BF0010E0001FC6FE1
:104DD800010EFD6F2C0EFE6F000EFF6F50EC21F0E0
:104DE800670E0101016F000E026F650E036F5D0E05
:104DF800046F000E056F640E046E000E056E066EDD
:104E0800076E77C000F078C001F079C002F07AC070
:104E180003F06DEC0AF000C006F101C007F102C012
:104E280008F103C009F1640E046E000E056E066EEB
:104E3800076E77C000F078C001F079C002F07AC040
:104E480003F06DEC0AF008C000F009C001F00AC0D8
:104E580002F00BC003F000C00AF101C00BF102C060
:104E68000CF103C00DF1C6EC21F0020E0001FC6F3D
:104E7800010EFD6F670EFE6F000EFF6F50EC21F004
:024E8800120016
:104E8A007BC000F07CC001F07DC002F07EC003F060
:104E9A000332023201320032039E03BC038E03AE98
:104EAA0007D006E3010E0026000E01220222032289
:104EBA0000C0F8F001C0F9F002C0FAF003C0FBF03C
:104ECA00000E0001F85FFA0EF95B000EFA5B000EA5
:104EDA00FB5BF8C0E4F0F9C0E5F0FAC0E6F0FBC00D
:104EEA00E7F0040E046E000E056E066E076EF8C03B
:104EFA0000F0F9C001F0FAC002F0FBC003F0ACEC1C
:104F0A0022F000C004F001C005F002C006F003C0A0
:104F1A0007F07FEC21F000C0F4F001C0F5F002C008
:104F2A00F6F003C0F7F0000E046E080E056E000ED0
:104F3A00066E076EF4C000F0F5C001F0F6C002F08C
:104F4A00F7C003F0ACEC22F09FC004F0A0C005F05B
:104F5A00000E0001A0BFFF0E066E076E7FEC21F067
:104F6A0000C0F0F001C0F1F002C0F2F003C0F3F0AB
:104F7A00F0C0E8F0F1C0E9F0F2C0EAF0F3C0EBF0FB
:104F8A009DC000F09EC001F0000E9EBFFF0E026E93
:104F9A00036EF8C004F0F9C005F0FAC006F0FBC0D1
:104FAA0007F07FEC21F000C004F001C005F002C058
:104FBA0006F003C007F004360490053606360736B5
:104FCA000450F025006E0550F121016E0650F221C1
:104FDA00026E0750F321036E00C0E8F001C0E9F049
:104FEA0002C0EAF003C0EBF0040E046E000E056E78
:104FFA00066E076EACEC22F09BC009F09CC00AF06A
:10500A00000E00019CBFFF0E0B6E0C6E0AC007F06B
:10501A0009C006F0046A056A04500024E86F0550C6
:10502A000120E96F06500220EA6F07500320EB6F58
:10503A0099C0F0F09AC0F1F0000E9ABFFF0EF26F1D
:10504A00F36F000E046E200E056E000E066E076EDC
:10505A00F4C000F0F5C001F0F6C002F0F7C003F0AA
:10506A00ACEC22F0F0C004F0F1C005F0F2C006F09A
:10507A00F3C007F07FEC21F0080E046E000E056EF7
:10508A00066E076EACEC22F000C0F0F001C0F1F041
:10509A0002C0F2F003C0F3F097C000F098C001F02C
:1050AA00000E000198BFFF0E026E036EF8C004F0F6
:1050BA00F9C005F0FAC006F0FBC007F07FEC21F05A
:1050CA0000C004F001C005F002C006F003C007F0FA
:1050DA000732063205320432079E07BC078E07AE36
:1050EA0007D006E3010E0426000E05220622072237
:1050FA000450F025006E0550F121016E0650F22190
:10510A00026E0750F321036E000E046E000E056E48
:10511A00040E066E000E076EACEC22F000C0E4F03E
:10512A0001C0E5F002C0E6F003C0E7F0000E00247B
:10513A00046E800E0120056E000E0220066E000E1F
:10514A000320076E95C000F096C001F0000E026EB3
:10515A00036E7FEC21F0000E046E800E056E000EC9
:10516A00066E076EACEC22F000C0E4F001C0E5F078
:10517A0002C0E6F003C0E7F0000E046E031808E16F
:10518A000450021805E10450011802E10050000A17
:10519A0002E1006A60D1000E0001F06F000EF16FAB
:1051AA00100EF26F000EF36FCC51F05FCD51F15B30
:1051BA00CE51F25BCF51F35B000E046E100E056EFA
:1051CA00000E066E076EE8C000F0E9C001F0EAC002
:1051DA0002F0EBC003F0ACEC22F0F0C004F0F1C036
:1051EA0005F0F2C006F0F3C007F00050045E01506B
:1051FA00055A0250065A0350075A350E006E0C0E15
:10520A00016E000E026E036E7FEC21F000C0ECF01E
:10521A0001C0EDF002C0EEF003C0EFF0800E035CB7
:10522A0008E1000E025C05E1000E015C02E1000EDD
:10523A00005C20E2ECC000F0EDC001F0EEC002F02C
:10524A00EFC003F000360090013602360336E4C0A0
:10525A0004F0E5C005F0E6C006F0E7C007F06DEC23
:10526A000AF000C0ECF001C0EDF002C0EEF003C09D
:10527A00EFF020D0E4C004F0E5C005F0E6C006F087
:10528A00E7C007F0ECC000F0EDC001F0EEC002F09C
:10529A00EFC003F06DEC0AF000C0ECF001C0EDF0D5
:1052AA0002C0EEF003C0EFF00001EC37EC91ED37ED
:1052BA00EE37EF370001A5C0F0F0A6C0F1F0000EFE
:1052CA00A6BFFF0EF26FF36F030E046EECC000F080
:1052DA00EDC001F0EEC002F0EFC003F0045007E0A9
:1052EA000332023201320032039EFF0FF8D700C0A8
:1052FA0004F001C005F002C006F003C007F07FEC1D
:10530A0021F00D0E086E00C004F001C005F002C0C5
:10531A0006F003C007F0085007E0073206320532EC
:10532A000432079EFF0FF8D7F0C000F0F1C001F079
:10533A00F2C002F0F3C003F07FEC21F0000E046E1D
:10534A00100E056E000E066E076EACEC22F000C061
:10535A00F0F001C0F1F002C0F2F003C0F3F0F0C0C7
:10536A00E4F0F1C0E5F0F2C0E6F0F3C0E7F0ECC01B
:10537A0004F0EDC005F0EEC006F0EFC007F007320A
:10538A00063205320432079E0732063205320432EB
:10539A00079EA3C000F0A4C001F0000E0001A4BF44
:1053AA00FF0E026E036E7FEC21F0000E046E200EDB
:1053BA00056E000E066E076EACEC22F000C0E8F037
:1053CA0001C0E9F002C0EAF003C0EBF000500001AE
:1053DA00F025046E0150F121056E0250F221066E8D
:1053EA000350F321076EA1C000F0A2C001F0000E25
:1053FA00A2BFFF0E026E036E045000260550012262
:10540A000650022207500322100E046E000E056E8B
:10541A00066E076EACEC22F00001EC510026ED514D
:10542A000122EE510222EF51032200C0ECF001C02A
:10543A00EDF002C0EEF003C0EFF0E2C0E1FFE3C01E
:10544A00E2FF00C0E6FF01C0E6FF02C0E6FF03C0BC
:08545A00E6FF010E006E1200D6
:1054620013EC22F0080E046E000E056E066E076E37
:1054720083C000F084C001F085C002F086C003F052
:10548200ACEC22F08FC00CF090C00DF0000E0E6E4E
:105492000F6E0CC008F00DC009F00EC00AF00FC06C
:1054A2000BF00836089009360A360B3600C004F0B5
:1054B20001C005F002C006F003C007F00850045E08
:1054C2000950055A0A50065A0B50075A91C000F06B
:1054D20092C001F0000E000192BFFF0E026E036E39
:1054E2007FEC21F0000E046E080E056E000E066EB3
:1054F200076EACEC22F000C0E4F001C0E5F002C09F
:10550200E6F003C0E7F0100E046E000E056E066EA4
:10551200076E83C000F084C001F085C002F086C02F
:1055220003F0ACEC22F08FC004F090C005F0000E46
:10553200066E076E00C00CF001C00DF002C00EF046
:1055420003C00FF004500C5E05500D5A06500E5A5F
:1055520007500F5A8FC008F090C009F0000E0A6E73
:105562000B6E00C004F001C005F002C006F003C0DB
:1055720007F00850045E0950055A0A50065A0B50AB
:10558200075A04C000F005C001F006C002F007C0CF
:1055920003F00CC004F00DC005F00EC006F00FC001
:1055A20007F07FEC21F0000E046E100E056E000E67
:1055B200066E076EACEC22F093C004F094C005F0C6
:1055C200000E000194BFFF0E066E076E7FEC21F005
:1055D200000E046E400E056E000E066E076EACECF9
:1055E20022F00001E4510026E5510122E651022297
:1055F200E751032200C07BF001C07CF002C07DF0C5
:1056020003C07EF0050E046E000E056E066E076E78
:105612007FEC21F0800E0026000E012202220322DE
:10562200000E046E010E056E000E066E076EACECE7
:1056320022F0E2C0E1FFE3C0E2FF00C0E6FF01C0EA
:10564200E6FF02C0E6FF03C0E6FF010E006E120095
:105652007BC0F8F07CC0F9F07DC0FAF07EC0FBF0B0
:10566200000E0001F85F2C0EF95B010EFA5B000ED2
:10567200FB5BF8C0ECF0F9C0EDF0FAC0EEF0FBC055
:10568200EFF00E0E006E7FC009F080C00AF081C0FC
:105692000BF082C00CF0005007E0093609900A3680
:1056A2000B360C36FF0FF8D7ABC005F0ACC006F0D6
:1056B200000EACBFFF0E076E086E140E046E05C01E
:1056C20000F006C001F007C002F008C003F0045069
:1056D20007E000360090013602360336FF0FF8D796
:1056E20009C0F0F00AC0F1F00BC0F2F00CC0F3F008
:1056F2000050F05F0150F15B0250F25B0350F35B2C
:10570200ADC000F0AEC001F0000EAEBFFF0E026EE3
:10571200036EF8C004F0F9C005F0FAC006F0FBC051
:1057220007F07FEC21F0F0C004F0F1C005F0F2C008
:1057320006F0F3C007F00050045E0150055A025013
:10574200065A0350075A000E0424006E400E05202C
:10575200016E000E0620026E000E0720036E000E80
:10576200046E800E056E000E066E076EACEC22F023
:1057720000C0F4F001C0F5F002C0F6F003C0F7F08B
:10578200AFC000F0000E0001AFBFFF0E016E026E4F
:10579200036EF8C004F0F9C005F0FAC006F0FBC0D1
:1057A20007F07FEC21F0000E046E040E056E000E71
:1057B200066E076EACEC22F000C0F0F001C0F1F012
:1057C20002C0F2F003C0F3F0AAC000F0000E016EB6
:1057D200026E036EF8C004F0F9C005F0FAC006F0DC
:1057E200FBC007F07FEC21F0000E046E080E056E80
:1057F200000E066E076EACEC22F0000E0026800E44
:105802000122000E0222000E0322F0C004F0F1C0B9
:1058120005F0F2C006F0F3C007F07FEC21F0000EB5
:10582200046E040E056E000E066E076EACEC22F0DE
:10583200000E0024046E000E0120056E200E0220D0
:10584200066E000E0320076EA8C000F0A9C001F08A
:10585200000E0001A9BFFF0E026E036E7FEC21F065
:10586200000E0026200E0122000E02220322000E4C
:10587200046E400E056E000E066E076EACEC22F052
:10588200F4C004F0F5C005F0F6C006F0F7C007F06A
:105892007FEC21F000C0F0F001C0F1F002C0F2F0A4
:1058A20003C0F3F0F0C0ECF0F1C0EDF0F2C0EEF0A6
:1058B200F3C0EFF0000E046E800E056E000E066E51
:1058C200076EF0C000F0F1C001F0F2C002F0F3C0C8
:1058D20003F0ACEC22F000C004F001C005F002C0FD
:1058E20006F003C007F07FEC21F0800E046E000E7C
:1058F200056E066E076EACEC22F0A7C004F0000E37
:10590200056E066E076E7FEC21F0100E046E000E1F
:10591200056E066E076EACEC22F0F0C004F0F1C02A
:1059220005F0F2C006F0F3C007F00050045E01502B
:10593200055A0250065A0350075A04C0ECF005C03B
:10594200EDF006C0EEF007C0EFF0800E0718006E13
:10595200800E005C08E1000E065C05E1000E055CAD
:1059620002E1000E045C06E20001E46BE56BE66B0B
:10597200E76B08D0ECC0E4F0EDC0E5F0EEC0E6F075
:10598200EFC0E7F00001E4C0ECF0E5C0EDF0E6C0E6
:10599200EEF0E7C0EFF0800E190A006E800EE719F4
:1059A200005C08E1E651000805E1E551000802E16A
:1059B200E451000809E2000EE86F000EE96F000EE4
:1059C200EA6F190EEB6F08D0ECC0E8F0EDC0E9F019
:1059D200EEC0EAF0EFC0EBF0E8C0ECF0E9C0EDF0A9
:1059E200EAC0EEF0EBC0EFF0000E046E100E056E92
:1059F200000E066E076EE8C000F0E9C001F0EAC0D2
:105A020002F0EBC003F0ACEC22F0E2C0E1FFE3C035
:105A1200E2FF00C0E6FF01C0E6FF02C0E6FF03C0EE
:085A2200E6FF010E006E120008
:105A2A00280EC86E89EC23F0030E0B6E080E0C6E5E
:105A3A00770E0D6E0D2EFED70C2EFCD70B2EFAD735
:105A4A00F4EC24F05BEC23F000C0D0F00050000A24
:105A5A0016E1010EFC6F010EFD6F590EFE6F000E6E
:105A6A00FF6F50EC21F0020E0001FC6F010EFD6F7A
